:020000040800F2
:10000000000500209D01000893100008290F00083A
:1000100091100008F5010008E91400080000000034
:10002000000000000000000000000000B710000801
:10003000F701000800000000B5100008B910000822
:10004000B7010008B7010008B7010008B7010008B0
:10005000B7010008B7010008B7010008B7010008A0
:10006000B7010008B7010008B7010008B701000890
:10007000B7010008B7010008B7010008B701000880
:10008000B7010008B7010008B7010008B701000870
:10009000B7010008B7010008B7010008B701000860
:1000A000B7010008B7010008B7010008B701000850
:1000B000B7010008B701000800000000B701000800
:1000C000B70100080000000000000000B7010008B0
:1000D00000000000B7010008B7010008B7010008E0
:1000E000B7010008B7010008000000000000000090
:1000F0000000000000000000000000000000000000
:1001000000000000000000000000000000000000EF
:100110000000000000000000B7010008B70100085F
:1001200000000000000000000000000000000000CF
:1001300000000000000000000000000000000000BF
:10014000B7010008B701000800000000B70100086F
:10015000B7010008B7010008B7010008B70100089F
:10016000B7010008B701000800000000000000000F
:10017000000000000000000000000000000000007F
:1001800000000000B7010008DFF80CD000F020F8F4
:100190000048004709150008000500200648804770
:1001A00006480047FEE7FEE7FEE7FEE7FEE7FEE75C
:1001B000FEE7FEE7FEE7FEE72511000889010008DB
:1001C000421C10F8011B0029FBD1801A7047000067
:1001D000064C074D06E0E06840F0010394E8070094
:1001E00098471034AC42F6D3FFF7D2FFD815000879
:1001F000F8150008FEE7704770B5044600F0D4F823
:100200000546601C02D004480078044400F0CCF895
:10021000401BA042FAD370BD000000202DE9F84F2A
:10022000DFF860B100234FF0010C4FF0030A4FF0EC
:100230000F090BF1040E9DE00CFA03F63440220086
:100240007ED04C68022C01D0122C0ED1DC0800EBC1
:100250008408D8F820405D07EF0E09FA07F5AC4393
:100260000D69BD402543C8F8205007685D0091F82E
:1002700004800AFA05F408F00308A74308FA05F811
:1002800048EA0708C0F800804F68012F05D0022F08
:1002900003D0112F01D0122F11D18768D1F80C8013
:1002A000A74308FA05F848EA0708C0F80880476835
:1002B000B7430E79C6F300169E403E434660C668BB
:1002C000A6438C68AC403443C4604C68E40050D50D
:1002D0002D4CA56945F00105A561A46923F003052E
:1002E00004F001040094294C2E19B4689D072F0FC7
:1002F00009FA07F5AC43B0F1904F04D0244DA84261
:1003000003D101250CE000250AE0224DA84201D1CD
:10031000022505E0204DA84201D1032500E0052576
:10032000BD402543B560DBF800405D464E68944310
:10033000F60300D514432C607546DEF8004000E05B
:1003400017E04E689443B60300D514432C600D4D5E
:1003500008352C684E689443F60200D514432C608F
:10036000084D0C352C684E689443B60200D51443F2
:100370002C605B1C0A681446DA407FF45DAFBDE870
:10038000F88F00000004014000100240000001400E
:100390000004004800080048000C00480AB18161D0
:1003A0007047816270470000014880687047000014
:1003B0000000002002488168027811448160704783
:1003C00000000020074810B5016841F010010160ED
:1003D000032000F089F8002000F006F800F024F86F
:1003E000002010BD0020024070B50D4D04464FF4B2
:1003F0007A712878B1FBF0F00A490968B1FBF0F096
:1004000000F063FC48B9102C07D200222146501E90
:1004100000F04AF800206C6070BD012070BD000043
:10042000000000200C0000201E4808B5816941F042
:1004300001018161816901F001010091C16941F00F
:100440008051C161C06900F080500090032000F02D
:100450004BF8002211466FF00B0000F025F8002247
:1004600011466FF00A0000F01FF8002211466FF0ED
:10047000090000F019F800221146501F00F014F88E
:1004800000221146101F00F00FF800221146901EA6
:1004900000F00AF80022BDE808401146501E00F0A6
:1004A00003B8000000100240F0B40E4B1B680C466D
:1004B000C3F30223C3F10705042D00D90425191D38
:1004C000072901D2002300E0DB1E012606FA05F110
:1004D000491E214099409E40761E16403143F0BC93
:1004E00000F0D8BD0CED00E0064900F007020868F6
:1004F0004FF6FF03184040EA0220034A1043086009
:10050000704700000CED00E00000FA052DE9F0470F
:100510000F46050069D04A4E306800F00700B84227
:1005200009D2306820F0070038433060306800F0AE
:100530000700B84259D12878424C800705D5606839
:10054000A96820F0F000084360602878C0073DD01B
:100550006968012001290DD0022923D05FF0020330
:1005600093FAA3F2B2FA82F242F02002520904D0C6
:10057000226803E04FF40033F2E7626A93FAA3F3D0
:10058000B3FA83F303F01F03984002422DD0606852
:1005900020F0030008436060FFF706FF804641F249
:1005A00088390CE04FF00073DAE700BFFFF7FCFE7C
:1005B000A0EB0801494502D90320BDE8F087606837
:1005C000696800F00C00B0EB810FEFD1306800F0EB
:1005D0000700B8420BD9306820F00700384330607C
:1005E000306800F00700B84201D00120E5E7287824
:1005F000400705D56068E96820F4E0600843606062
:100600002878000706D56068296920F4605040EA20
:10061000C100606000F052F86168F02292FAA2F224
:1006200001F0F001B2FA82F2D140074A515CC840B1
:10063000064908600020FFF7D7FE0020BDE7000054
:100640000020024000100240C01500080C000020ED
:1006500001480068704700000C0000200848094964
:10066000006849684FF4E06292FAA2F201F4E06196
:10067000B2FA82F2D140044A515CC840704700008F
:100680000C00002000100240D0150008084809495D
:10069000006849684FF4605292FAA2F201F4605186
:1006A000B2FA82F2D140044A515CC840704700005F
:1006B0000C00002000100240D0150008144B10B5AB
:1006C0005A68144802F00C0104291DD008291BD1D6
:1006D0004FF4701494FAA4F402F47011B4FA84F490
:1006E000E1400D4CDB6A615C0F2494FAA4F403F042
:1006F0000F03B4FA84F4E340074C1034D203E35CF4
:1007000003D5B0FBF3F0484310BD0448484310BD87
:100710000010024000127A00A015000800093D00F8
:100720002DE9F84F040071D02078FB4DC0074FF041
:10073000010625D068687704C0F38100012807D03E
:100740006868C0F3810002281BD16868C00318D50F
:1007500097FAA7F0B0FA80F040F02000400901D0ED
:10076000286800E0686A97FAA7F1B1FA81F101F010
:100770001F0106FA01F1084265D060680028D2D056
:1007800061E06068B0F5803F0BD010B1B0F5A02FEC
:1007900017D0286820F480302860286820F4802052
:1007A00002E0286840F480302860E86AA16820F000
:1007B0000F000843E862606820B3FFF7F5FD80464C
:1007C0000AE0286840F480202860EAE7FFF7ECFDA3
:1007D000A0EB0800642872D897FAA7F0B0FA80F06E
:1007E00040F02000400901D0286800E0686A97FACC
:1007F000A7F1B1FA81F101F01F0106FA01F10842F7
:10080000E4D020E0FFF7D0FD804607E0C7E000BF5E
:10081000FFF7CAFDA0EB08006428DCD897FAA7F020
:10082000B0FA80F040F02000400901D0286800E0D4
:10083000686A97FAA7F1B1FA81F101F01F0106FA8F
:1008400001F10842E4D12078DFF8D08280074FF030
:10085000000A4FF0020759D568684FF0F80B10F006
:100860000C0F07D06868C0F3810002281BD16868AC
:10087000C00318D497FAA7F0B0FA80F040F0200037
:10088000400901D0286800E0686A97FAA7F1B1FA38
:1008900081F101F01F0106FA01F108422BD0206915
:1008A00001287CD127E0206988B396FAA6F0B0FA37
:1008B00080F048F82060FFF777FD814606E055E1BB
:1008C000FFF772FDA0EB0900022884D897FAA7F081
:1008D000B0FA80F040F02000400901D0286800E024
:1008E000686A97FAA7F1B1FA81F101F01F0106FADF
:1008F00001F10842E4D028689BFAABF26169B2FAD0
:1009000082F220F0F80091400843286025E0FFE7DC
:1009100096FAA6F1B1FA81F148F821A0FFF744FD5B
:10092000814605E0FFF740FDA0EB09000228CCD886
:1009300097FAA7F0B0FA80F040F02000400901D00B
:10094000286800E0686A97FAA7F1B1FA81F101F02E
:100950001F0106FA01F10842E4D1207800076AD5A8
:10096000A069A0B396FAA6F0B0FA80F008EB800078
:10097000C0F88064FFF718FD814605E0FFF714FD1D
:10098000A0EB09000228A0D897FAA7F0B0FA80F0EF
:1009900040F06000B6EB501F02D128680CE077E110
:1009A00097FAA7F0B0FA80F040F06000B7EB501F64
:1009B00001D1286A00E0686A97FAA7F1B1FA81F1DB
:1009C00001F01F0106FA01F21042D7D033E0FFE731
:1009D00096FAA6F0B0FA80F008EB8000C0F880A488
:1009E000FFF7E2FC814605E0FFF7DEFCA0EB090023
:1009F00002289CD897FAA7F0B0FA80F040F0600087
:100A0000B6EB501F01D128680BE097FAA7F0B0FAB7
:100A100080F040F06000B7EB501F01D1286A00E081
:100A2000686A97FAA7F1B1FA81F101F01F0106FA9D
:100A300001F21042D8D12078400774D5E8694FF010
:100A40000009C00009D4E86940F08050E861E86915
:100A50004FF0010900F08050009031480168C9054D
:100A600012D4016841F480710160FFF79DFC834658
:100A700006E000BFFFF798FCA0EB0B00642875D8D8
:100A800027480068C005F5D5E06801280AD008B1FC
:100A9000052811D0286A20F001002862286A20F079
:100AA000040002E0286A40F001002862E068C8B350
:100AB000FFF77AFC83460DE0286A40F004002862C4
:100AC000F0E700BFFFF770FCA0EB0B0141F28830AC
:100AD00081424BD897FAA7F0B0FA80F040F040007E
:100AE000B6EB501F01D128680BE097FAA7F0B0FAD7
:100AF00080F040F04000B7EB501F01D1286A00E0C1
:100B0000686A97FAA7F1B1FA81F101F01F0106FABC
:100B100001F21042D6D035E00010024000004242FF
:100B20000070004000E034E0FFF73EFC834607E041
:100B3000FFF73AFCA0EB0B0141F28830814215D857
:100B400097FAA7F0B0FA80F040F04000B6EB501FE3
:100B500001D128680CE097FAA7F0B0FA80F040F0D5
:100B60004000B7EB501F02D1286A01E083E0686AB9
:100B700097FAA7F1B1FA81F101F01F0106FA01F22B
:100B80001042D5D1B9F1000F03D0E86920F08050B0
:100B9000E861E06980B36968C1F38101022977D017
:100BA0004FF080714F00022809D091FAA1F0B0FAFD
:100BB00080F048F820A0FFF7F7FB04465EE05046BF
:100BC0008A4691FAA1F1B1FA81F1C14648F82100B3
:100BD000FFF7EAFB804605E0FFF7E6FBA0EB080025
:100BE000022848D897FAA7F0B0FA80F040F0200029
:100BF000400902D0286801E056E0686A97FAA7F138
:100C0000B1FA81F101F01F0106FA01F10842E3D1C6
:100C1000D4E908100843696821F474110843686036
:100C20009AFAAAF0B0FA80F049F82060FFF7BCFB0E
:100C3000044604E0FFF7B8FB001B02281BD897FA14
:100C4000A7F0B0FA80F040F02000400901D02868F9
:100C500000E0686A97FAA7F1B1FA81F101F01F018B
:100C600006FA01F10842E5D01EE000BFFFF79CFB49
:100C7000001B022802D90320BDE8F88F97FAA7F0DD
:100C8000B0FA80F040F02000400902D0286801E06E
:100C90000CE0686A97FAA7F1B1FA81F101F01F013F
:100CA00006FA01F10842E1D10020E5E70120E3E77F
:100CB0004FF0E0210428086903D020F00400086107
:100CC000704740F00400FAE7704710B5401EB0F1DD
:100CD000807F01D3012010BD4FF0E02460610F211F
:100CE000601700F0D7F90020A061072020610020E4
:100CF00010BD10B5FFF7E8FF10BD000030B590F84B
:100D00003C20012A1CD0012280F83C2003685A684C
:100D10009C680C4DAB4203D122F470054A682A430B
:100D200022F070050A6889682A4324F08004214370
:100D30005A6002689160002180F83C10084630BD7E
:100D4000022030BD002C014010B5040003D094F8FF
:100D50003D0010B107E0012010BD002084F83C00E8
:100D6000204600F00DF8022084F83D00211D206887
:100D700000F00CFA012084F83D00002010BD0000B6
:100D800008B50C4A01680C48914207D1C16941F08D
:100D90001001C161C06900F0100009E0074A9142EA
:100DA00007D1C16941F02001C161C06900F0200094
:100DB000009008BD001000400010024000140040E8
:100DC00010B5040003D094F8690010B107E00120C9
:100DD00010BD002084F86800204600F027F8242089
:100DE00084F869002068016821F001010160204653
:100DF00000F0A2FA0128EBD0606A10B1204600F0A2
:100E000009FA2068416821F49041416020688168B6
:100E100021F02A0181602068016841F00101016030
:100E20002046BDE8104000F059BA000000B5006847
:100E30000E4987B0884217D10D48C16941F400318D
:100E4000C161C069694600F4003005900C20009033
:100E500002200190002002900320039007200490BC
:100E60004FF09040FFF7DAF907B000BD00440040B2
:100E7000001002402DE9F843044690F869001F462F
:100E800016460D4620284DD1CDB1C6B194F8680064
:100E9000012847D0012084F868004FF00008C4F80A
:100EA0006C80212084F869005034FFF77DFA24F823
:100EB000026B814624F852694FF4805618E00120F5
:100EC000BDE8F883B4F85200401EA4F852004B4627
:100ED000002280212046009700F0D4FAA0B9A06833
:100EE000B04201D1206988B115F8010B216808854D
:100EF000B4F852000028E5D14B460022402120469C
:100F0000009700F0BFFA30B10320D9E735F8020BA3
:100F1000C0F30800EAE7202084F8690084F86880BC
:100F20000020CDE70220CBE7FEE700002DE9F041ED
:100F3000284886B0416941F400214161416901F4CA
:100F400000210591416941F480014161416901F449
:100F500080010591416941F400314161416901F429
:100F600000310591416941F48021416140694FF0B0
:100F7000904700F480200590002220213846FFF79A
:100F80000DFADFF854804FF4807600223146404657
:100F9000FFF704FA4FF40850009010480024CDE900
:100FA000010469464046FFF739F9202000900125E9
:100FB000CDE90154694638460394FFF72FF9CDE98E
:100FC0000065CDE9025469464046FFF727F906B0AF
:100FD000BDE8F08100100240000800480000211028
:100FE0003EB50E480C49002401604FF47A71C0E907
:100FF000011440F6FF71C16080218161FFF7A4FEFA
:1010000000B1FEE70094694604480294FFF776FEBB
:10101000002800D0FEE73EBD001000401000002078
:101020003EB50C480A490024C0E900148460C4603D
:101030008461FFF789FE00B1FEE700946946054828
:101040000294FFF75BFE002800D0FEE73EBD0000E3
:1010500000140040500000200C4810B50A490160FF
:101060004FF416514160002181600C22C160C0E93B
:1010700004128161C16101624162FFF7A1FE002893
:1010800000D0FEE710BD00000044004090000020AA
:10109000FEE770470907090E002806DA00F00F0086
:1010A00000F1E02080F8141D704700F1E02080F886
:1010B000001470477047704710B5FFF77BF9BDE823
:1010C0001040FFF716BE10B590B00220009001202E
:1010D000049010200024059007946846FFF720FB39
:1010E00000B1FEE70F20CDE90A04A020CDE90C04F1
:1010F00000210AA80E94FFF709FA00B1FEE7FFF7F6
:10110000A7FA4FF47A71B0FBF1F0FFF7DEFD04208F
:10111000FFF7CEFD00221146501EFFF7C5F910B0B3
:1011200010BD00001448016841F4700101601348CB
:10113000016841F0010101604168114A11404160BC
:101140000168104A11400160016821F480210160AA
:10115000416821F4FE014160C16A21F00F01C162C2
:10116000016B094A11400163002181600249C003FB
:10117000803908607047000088ED00E000100240F0
:101180000CC07FF8FFFFF6FECCFC00FFF0B5026854
:101190001B4B1C4F4FF0804C984203D0604501D050
:1011A000B84203D122F070044A682243164C174D0E
:1011B000174E984209D0604507D0B84205D0A042EA
:1011C00003D0A84201D0B04203D122F44077CA68CC
:1011D0003A434F6922F080023A4302608A68C26251
:1011E0000A688262984205D0A04203D0A84201D08A
:1011F000B04201D10969016301214161F0BD0000E4
:10120000002C014000040040004001400044014027
:101210000048014090F82410C90706D001684A68C8
:10122000836A22F400321A434A6090F82410890736
:1012300006D501684A68C36A22F480321A434A60BC
:1012400090F82410490706D501684A68036B22F418
:1012500080221A434A6090F82410090706D50168D5
:101260004A68436B22F400421A434A6090F8241003
:10127000C90606D501688A68836B22F480521A4336
:101280008A6090F82410890606D501688A68C36BC5
:1012900022F400521A438A6090F82410490611D5AE
:1012A00001684A68036C22F480121A434A60016C98
:1012B000B1F5801F06D101684A68436C22F4C00270
:1012C0001A434A6090F82410090606D501684A6856
:1012D000806C22F4002202434A607047F8B5002671
:1012E0000446C666FFF760F80546206800686FF0A0
:1012F0007E47000708D52B4600224FF400112046F8
:10130000009700F0BFF860B92068006840070AD570
:101310002B4600224FF480012046009700F0B2F8DF
:1013200008B10320F8BD202084F8690084F86A0021
:1013300084F868600020F8BD2DE9F04104461020D3
:101340002369A268E6691A436369002133431A439B
:1013500023680D461E68444F3E4016431E602268B7
:101360005368E66823F4405333435360236AA26909
:101370001A4323689E6826F4306616439E603B4BF2
:1013800022689A4210D13A4B1B6B13F0030311D021
:10139000012B05D0022B05D0032B0CD102200AE033
:1013A000042008E0082006E0324B9A4202D0324B7B
:1013B0009A4200D10020E6694FF400439E4226D1B4
:1013C00009281DD2DFE800F00508121C151C1C1CA2
:1013D0001800FFF743F901E0FFF758F94100606892
:1013E00001EB5001B1FBF0F081B20AE023496068E3
:1013F000F6E7FFF763F9F1E74FF480316068EFE754
:10140000012521F00F00C1F3420108431CE0092827
:1014100025D2DFE800F005080B24102424241C004A
:10142000FFF71CF909E0FFF731F906E0144960689D
:1014300001EB50010EE0FFF741F90146606801EB56
:101440005001B1FBF0F080B22168C86008E060682C
:1014500003EB5001B1FBF0F080B2D06000E0012559
:101460002846BDE8F0810000F369FFEF0038014035
:101470000010024000440040004800400024F400F6
:1014800000127A002DE9F041984617460E460446B0
:10149000069D1DE0681C1BD02DB1FEF785FFA0EB5B
:1014A0000800A84214D92068016821F4D0710160B5
:1014B0002068816821F001018160202084F86900A2
:1014C00084F86A00002084F868000320BDE8F081F9
:1014D0002068C06936EA000004D00020B842D9D0A4
:1014E0000020F3E70120F9E7FEE702E008C8121F39
:1014F00008C1002AFAD170477047002001E001C1FD
:10150000121F002AFBD170471CB5FEF75BFFFFF7E7
:10151000DAFD134DFFF70AFDFFF762FDFFF780FDCF
:10152000FFF79AFD6C462B885FF00000C0F10701C1
:10153000890023FA01F202F00F01225421540A29F2
:1015400001D2303100E037312154401C0828EDDB56
:10155000684600F007F84FF47A70FEF74DFEE2E7B8
:101560002410004038B505460BA000240068009008
:1015700006E029190A2301220848FFF77BFC641CB6
:101580002846FEF71DFEA042F3D80A230222694630
:101590000248FFF76FFC38BD0D0A000090000020E4
:1015A00002030405060708090A0B0C0D0E0F1010A4
:1015B0000102030405060708090A0B0C0D0E0F10A3
:1015C00000000000000000000102030406070809F3
:1015D0000000000001020304F815000800000020CC
:1015E00010000000EA14000808160008100000208F
:1015F000F0040000FA1400080100000010000000D0
:081600000000000000127A0056
:040000050800018965
:00000001FF
